{
  "contractName": "Coin",
  "abi": [
    {
      "inputs": [],
      "payable": false,
      "stateMutability": "nonpayable",
      "type": "constructor"
    },
    {
      "anonymous": false,
      "inputs": [
        {
          "indexed": false,
          "internalType": "string",
          "name": "description",
          "type": "string"
        },
        {
          "indexed": false,
          "internalType": "bytes32",
          "name": "queryId",
          "type": "bytes32"
        }
      ],
      "name": "LogNewProvableQuery",
      "type": "event"
    },
    {
      "anonymous": false,
      "inputs": [
        {
          "indexed": false,
          "internalType": "address",
          "name": "playerAddress",
          "type": "address"
        },
        {
          "indexed": false,
          "internalType": "uint256",
          "name": "betAmount",
          "type": "uint256"
        },
        {
          "indexed": false,
          "internalType": "string",
          "name": "coinFace",
          "type": "string"
        },
        {
          "indexed": false,
          "internalType": "bool",
          "name": "winner",
          "type": "bool"
        },
        {
          "indexed": false,
          "internalType": "uint256",
          "name": "payout",
          "type": "uint256"
        }
      ],
      "name": "betPlaced",
      "type": "event"
    },
    {
      "anonymous": false,
      "inputs": [
        {
          "indexed": false,
          "internalType": "bytes32",
          "name": "queryId",
          "type": "bytes32"
        },
        {
          "indexed": false,
          "internalType": "uint256",
          "name": "randomNumber",
          "type": "uint256"
        },
        {
          "indexed": false,
          "internalType": "address",
          "name": "playerAddress",
          "type": "address"
        }
      ],
      "name": "generatedRandomNumber",
      "type": "event"
    },
    {
      "constant": true,
      "inputs": [
        {
          "internalType": "bytes32",
          "name": "",
          "type": "bytes32"
        }
      ],
      "name": "bets",
      "outputs": [
        {
          "internalType": "address payable",
          "name": "playerAddress",
          "type": "address"
        },
        {
          "internalType": "uint256",
          "name": "coinFace",
          "type": "uint256"
        },
        {
          "internalType": "uint256",
          "name": "betAmount",
          "type": "uint256"
        }
      ],
      "payable": false,
      "stateMutability": "view",
      "type": "function"
    },
    {
      "constant": true,
      "inputs": [],
      "name": "lossCount",
      "outputs": [
        {
          "internalType": "uint256",
          "name": "",
          "type": "uint256"
        }
      ],
      "payable": false,
      "stateMutability": "view",
      "type": "function"
    },
    {
      "constant": true,
      "inputs": [],
      "name": "owner",
      "outputs": [
        {
          "internalType": "address",
          "name": "",
          "type": "address"
        }
      ],
      "payable": false,
      "stateMutability": "view",
      "type": "function"
    },
    {
      "constant": true,
      "inputs": [],
      "name": "winCount",
      "outputs": [
        {
          "internalType": "uint256",
          "name": "",
          "type": "uint256"
        }
      ],
      "payable": false,
      "stateMutability": "view",
      "type": "function"
    },
    {
      "constant": false,
      "inputs": [
        {
          "internalType": "uint256",
          "name": "_coinFace",
          "type": "uint256"
        }
      ],
      "name": "placeBet",
      "outputs": [],
      "payable": true,
      "stateMutability": "payable",
      "type": "function"
    },
    {
      "constant": false,
      "inputs": [
        {
          "internalType": "bytes32",
          "name": "_myid",
          "type": "bytes32"
        },
        {
          "internalType": "string",
          "name": "_result",
          "type": "string"
        }
      ],
      "name": "__callback",
      "outputs": [],
      "payable": false,
      "stateMutability": "nonpayable",
      "type": "function"
    },
    {
      "constant": false,
      "inputs": [
        {
          "internalType": "bytes32",
          "name": "_queryId",
          "type": "bytes32"
        },
        {
          "internalType": "string",
          "name": "_result",
          "type": "string"
        },
        {
          "internalType": "bytes",
          "name": "_proof",
          "type": "bytes"
        }
      ],
      "name": "__callback",
      "outputs": [],
      "payable": false,
      "stateMutability": "nonpayable",
      "type": "function"
    },
    {
      "constant": false,
      "inputs": [],
      "name": "testRandom",
      "outputs": [
        {
          "internalType": "bytes32",
          "name": "",
          "type": "bytes32"
        }
      ],
      "payable": false,
      "stateMutability": "nonpayable",
      "type": "function"
    },
    {
      "constant": false,
      "inputs": [],
      "name": "deposit",
      "outputs": [],
      "payable": true,
      "stateMutability": "payable",
      "type": "function"
    },
    {
      "constant": true,
      "inputs": [],
      "name": "getContractBalance",
      "outputs": [
        {
          "internalType": "uint256",
          "name": "",
          "type": "uint256"
        }
      ],
      "payable": false,
      "stateMutability": "view",
      "type": "function"
    },
    {
      "constant": true,
      "inputs": [],
      "name": "getPlayerBalance",
      "outputs": [
        {
          "internalType": "uint256",
          "name": "",
          "type": "uint256"
        }
      ],
      "payable": false,
      "stateMutability": "view",
      "type": "function"
    },
    {
      "constant": true,
      "inputs": [
        {
          "internalType": "address",
          "name": "_playerAddress",
          "type": "address"
        }
      ],
      "name": "getPlayerStatus",
      "outputs": [
        {
          "internalType": "bool",
          "name": "",
          "type": "bool"
        }
      ],
      "payable": false,
      "stateMutability": "view",
      "type": "function"
    },
    {
      "constant": false,
      "inputs": [],
      "name": "cashoutPlayer",
      "outputs": [
        {
          "internalType": "uint256",
          "name": "",
          "type": "uint256"
        }
      ],
      "payable": false,
      "stateMutability": "nonpayable",
      "type": "function"
    },
    {
      "constant": false,
      "inputs": [],
      "name": "withdrawAll",
      "outputs": [
        {
          "internalType": "uint256",
          "name": "",
          "type": "uint256"
        }
      ],
      "payable": false,
      "stateMutability": "nonpayable",
      "type": "function"
    },
    {
      "constant": false,
      "inputs": [
        {
          "internalType": "address",
          "name": "_playerAddress",
          "type": "address"
        }
      ],
      "name": "resetPlayerAddress",
      "outputs": [],
      "payable": false,
      "stateMutability": "nonpayable",
      "type": "function"
    }
  ],
  "bytecode": "0x608060405234801561001057600080fd5b50336000806101000a81548173ffffffffffffffffffffffffffffffffffffffff021916908373ffffffffffffffffffffffffffffffffffffffff1602179055506118f1806100606000396000f3fe6080604052600436106100e85760003560e01c80637e9be14e1161008a578063c902c3ae11610059578063c902c3ae1461053e578063d0e30db0146105c7578063f2da3ac7146105d1578063fbddd14b146105fc576100e8565b80637e9be14e14610440578063853828b6146104915780638da5cb5b146104bc578063abad35bc14610513576100e8565b806327dc297e116100c657806327dc297e146101af57806338bbfa50146102815780636f9fb98a146103ea578063719e4a4214610415576100e8565b80630b01517c146100ed5780630f45db911461011857806310fe7c4814610181575b600080fd5b3480156100f957600080fd5b50610102610627565b6040518082815260200191505060405180910390f35b34801561012457600080fd5b506101676004803603602081101561013b57600080fd5b81019080803573ffffffffffffffffffffffffffffffffffffffff169060200190929190505050610671565b604051808215151515815260200191505060405180910390f35b6101ad6004803603602081101561019757600080fd5b81019080803590602001909291905050506106ca565b005b3480156101bb57600080fd5b5061027f600480360360408110156101d257600080fd5b8101908080359060200190929190803590602001906401000000008111156101f957600080fd5b82018360208201111561020b57600080fd5b8035906020019184600183028401116401000000008311171561022d57600080fd5b91908080601f016020809104026020016040519081016040528093929190818152602001838380828437600081840152601f19601f820116905080830192505050505050509192919290505050610aa3565b005b34801561028d57600080fd5b506103e8600480360360608110156102a457600080fd5b8101908080359060200190929190803590602001906401000000008111156102cb57600080fd5b8201836020820111156102dd57600080fd5b803590602001918460018302840111640100000000831117156102ff57600080fd5b91908080601f016020809104026020016040519081016040528093929190818152602001838380828437600081840152601f19601f8201169050808301925050505050505091929192908035906020019064010000000081111561036257600080fd5b82018360208201111561037457600080fd5b8035906020019184600183028401116401000000008311171561039657600080fd5b91908080601f016020809104026020016040519081016040528093929190818152602001838380828437600081840152601f19601f820116905080830192505050505050509192919290505050610ae6565b005b3480156103f657600080fd5b506103ff61110b565b6040518082815260200191505060405180910390f35b34801561042157600080fd5b5061042a61112a565b6040518082815260200191505060405180910390f35b34801561044c57600080fd5b5061048f6004803603602081101561046357600080fd5b81019080803573ffffffffffffffffffffffffffffffffffffffff169060200190929190505050611130565b005b34801561049d57600080fd5b506104a66111e7565b6040518082815260200191505060405180910390f35b3480156104c857600080fd5b506104d16112ac565b604051808273ffffffffffffffffffffffffffffffffffffffff1673ffffffffffffffffffffffffffffffffffffffff16815260200191505060405180910390f35b34801561051f57600080fd5b506105286112d1565b6040518082815260200191505060405180910390f35b34801561054a57600080fd5b506105776004803603602081101561056157600080fd5b81019080803590602001909291905050506112d7565b604051808473ffffffffffffffffffffffffffffffffffffffff1673ffffffffffffffffffffffffffffffffffffffff168152602001838152602001828152602001935050505060405180910390f35b6105cf611321565b005b3480156105dd57600080fd5b506105e6611323565b6040518082815260200191505060405180910390f35b34801561060857600080fd5b50610611611634565b6040518082815260200191505060405180910390f35b6000600860003373ffffffffffffffffffffffffffffffffffffffff1673ffffffffffffffffffffffffffffffffffffffff16815260200190815260200160002060020154905090565b6000600860008373ffffffffffffffffffffffffffffffffffffffff1673ffffffffffffffffffffffffffffffffffffffff16815260200190815260200160002060030160009054906101000a900460ff169050919050565b67016345785d8a000034101561072b576040517f08c379a00000000000000000000000000000000000000000000000000000000081526004018080602001828103825260228152602001806118366022913960400191505060405180910390fd5b600181148061073a5750600081145b6107ac576040517f08c379a000000000000000000000000000000000000000000000000000000000815260040180806020018281038252601b8152602001807f4d7573742073706563696679204865616473206f72205461696c73000000000081525060200191505060405180910390fd5b62030d403073ffffffffffffffffffffffffffffffffffffffff163103341115610821576040517f08c379a000000000000000000000000000000000000000000000000000000000815260040180806020018281038252602e815260200180611858602e913960400191505060405180910390fd5b60001515600860003373ffffffffffffffffffffffffffffffffffffffff1673ffffffffffffffffffffffffffffffffffffffff16815260200190815260200160002060030160009054906101000a900460ff161515146108ea576040517f08c379a00000000000000000000000000000000000000000000000000000000081526004018080602001828103825260208152602001807f706c6179657220616c72656164792068617320612070656e64696e672062657481525060200191505060405180910390fd5b3462030d4060023073ffffffffffffffffffffffffffffffffffffffff16310203101561091357fe5b600061091d611634565b905080600860003373ffffffffffffffffffffffffffffffffffffffff1673ffffffffffffffffffffffffffffffffffffffff168152602001908152602001600020600101819055506001600860003373ffffffffffffffffffffffffffffffffffffffff1673ffffffffffffffffffffffffffffffffffffffff16815260200190815260200160002060030160006101000a81548160ff021916908315150217905550336009600083815260200190815260200160002060000160006101000a81548173ffffffffffffffffffffffffffffffffffffffff021916908373ffffffffffffffffffffffffffffffffffffffff1602179055508160096000838152602001908152602001600020600101819055503460096000838152602001908152602001600020600201819055507f03f87726502eec329641d0b704cac4f62e20440c8e341563a08a35b50dc0c20f81604051808060200183815260200182810382526037815260200180611886603791396040019250505060405180910390a15050565b610ae2828260006040519080825280601f01601f191660200182016040528015610adc5781602001600182028038833980820191505090505b50610ae6565b5050565b60006002836040516020018082805190602001908083835b60208310610b215780518252602082019150602081019050602083039250610afe565b6001836020036101000a0380198251168184511680821785525050505050509050019150506040516020818303038152906040528051906020012060001c81610b6657fe5b069050606060008214610bae576040518060400160405280600581526020017f5461696c73000000000000000000000000000000000000000000000000000000815250610be5565b6040518060400160405280600581526020017f48656164730000000000000000000000000000000000000000000000000000008152505b905060006009600087815260200190815260200160002060020154905060006009600088815260200190815260200160002060000160009054906101000a900473ffffffffffffffffffffffffffffffffffffffff1690507fd97b9394e1412bc07b6cae55478b94bbb7e0aba59b77ef6185ff7ad3d7e2857a878583604051808481526020018381526020018273ffffffffffffffffffffffffffffffffffffffff1673ffffffffffffffffffffffffffffffffffffffff168152602001935050505060405180910390a16000600860008373ffffffffffffffffffffffffffffffffffffffff1673ffffffffffffffffffffffffffffffffffffffff16815260200190815260200160002060030160006101000a81548160ff02191690831515021790555086600860008373ffffffffffffffffffffffffffffffffffffffff1673ffffffffffffffffffffffffffffffffffffffff16815260200190815260200160002060010154148015610d715750836009600089815260200190815260200160002060010154145b15610ed05760066000815480929190600101919050555060028202600860008373ffffffffffffffffffffffffffffffffffffffff1673ffffffffffffffffffffffffffffffffffffffff168152602001908152602001600020600201600082825401925050819055507fb66b557a837763eb215e719f24dfe2f616b2128ccc195d9b968151c0e3995ea9818385600160028702604051808673ffffffffffffffffffffffffffffffffffffffff1673ffffffffffffffffffffffffffffffffffffffff1681526020018581526020018060200184151515158152602001838152602001828103825285818151815260200191508051906020019080838360005b83811015610e8d578082015181840152602081019050610e72565b50505050905090810190601f168015610eba5780820380516001836020036101000a031916815260200191505b50965050505050505060405180910390a1611102565b86600860008373ffffffffffffffffffffffffffffffffffffffff1673ffffffffffffffffffffffffffffffffffffffff1681526020019081526020016000206001015414156111015760076000815480929190600101919050555081600860008373ffffffffffffffffffffffffffffffffffffffff1673ffffffffffffffffffffffffffffffffffffffff1681526020019081526020016000206002015411610fc2576000600860008373ffffffffffffffffffffffffffffffffffffffff1673ffffffffffffffffffffffffffffffffffffffff16815260200190815260200160002060020181905550611013565b81600860008373ffffffffffffffffffffffffffffffffffffffff1673ffffffffffffffffffffffffffffffffffffffff168152602001908152602001600020600201600082825403925050819055505b7fb66b557a837763eb215e719f24dfe2f616b2128ccc195d9b968151c0e3995ea9818385600080604051808673ffffffffffffffffffffffffffffffffffffffff1673ffffffffffffffffffffffffffffffffffffffff1681526020018581526020018060200184151515158152602001838152602001828103825285818151815260200191508051906020019080838360005b838110156110c25780820151818401526020810190506110a7565b50505050905090810190601f1680156110ef5780820380516001836020036101000a031916815260200191505b50965050505050505060405180910390a15b5b50505050505050565b60003073ffffffffffffffffffffffffffffffffffffffff1631905090565b60075481565b6000809054906101000a900473ffffffffffffffffffffffffffffffffffffffff1673ffffffffffffffffffffffffffffffffffffffff163373ffffffffffffffffffffffffffffffffffffffff161461118957600080fd5b6000600860008373ffffffffffffffffffffffffffffffffffffffff1673ffffffffffffffffffffffffffffffffffffffff16815260200190815260200160002060030160006101000a81548160ff02191690831515021790555050565b60008060009054906101000a900473ffffffffffffffffffffffffffffffffffffffff1673ffffffffffffffffffffffffffffffffffffffff163373ffffffffffffffffffffffffffffffffffffffff161461124257600080fd5b60003073ffffffffffffffffffffffffffffffffffffffff163190503373ffffffffffffffffffffffffffffffffffffffff166108fc829081150290604051600060405180830381858888f193505050501580156112a4573d6000803e3d6000fd5b508091505090565b6000809054906101000a900473ffffffffffffffffffffffffffffffffffffffff1681565b60065481565b60096020528060005260406000206000915090508060000160009054906101000a900473ffffffffffffffffffffffffffffffffffffffff16908060010154908060020154905083565b565b600080600860003373ffffffffffffffffffffffffffffffffffffffff1673ffffffffffffffffffffffffffffffffffffffff16815260200190815260200160002060020154116113dc576040517f08c379a00000000000000000000000000000000000000000000000000000000081526004018080602001828103825260148152602001807f706c617965722068617320302062616c616e636500000000000000000000000081525060200191505060405180910390fd5b3073ffffffffffffffffffffffffffffffffffffffff1631600860003373ffffffffffffffffffffffffffffffffffffffff1673ffffffffffffffffffffffffffffffffffffffff16815260200190815260200160002060020154111561148e576040517f08c379a00000000000000000000000000000000000000000000000000000000081526004018080602001828103825260238152602001806118136023913960400191505060405180910390fd5b60001515600860003373ffffffffffffffffffffffffffffffffffffffff1673ffffffffffffffffffffffffffffffffffffffff16815260200190815260200160002060030160009054906101000a900460ff16151514611557576040517f08c379a00000000000000000000000000000000000000000000000000000000081526004018080602001828103825260208152602001807f706c6179657220616c72656164792068617320612070656e64696e672062657481525060200191505060405180910390fd5b6000600860003373ffffffffffffffffffffffffffffffffffffffff1673ffffffffffffffffffffffffffffffffffffffff1681526020019081526020016000206002015490506000600860003373ffffffffffffffffffffffffffffffffffffffff1673ffffffffffffffffffffffffffffffffffffffff168152602001908152602001600020600201819055503373ffffffffffffffffffffffffffffffffffffffff166108fc829081150290604051600060405180830381858888f1935050505015801561162c573d6000803e3d6000fd5b508091505090565b60008033604051602001808273ffffffffffffffffffffffffffffffffffffffff1673ffffffffffffffffffffffffffffffffffffffff1660601b81526014019150506040516020818303038152906040528051906020012090506000600190506116dd826116a2836116e5565b6040518060400160405280600481526020017f7465737400000000000000000000000000000000000000000000000000000000815250610ae6565b819250505090565b6060600082141561172d576040518060400160405280600181526020017f3000000000000000000000000000000000000000000000000000000000000000815250905061180d565b600082905060005b60008214611757578080600101915050600a828161174f57fe5b049150611735565b6060816040519080825280601f01601f19166020018201604052801561178c5781602001600182028038833980820191505090505b50905060006001830390505b6000861461180557600a86816117aa57fe5b0660300160f81b828280600190039350815181106117c457fe5b60200101907effffffffffffffffffffffffffffffffffffffffffffffffffffffffffffff1916908160001a905350600a86816117fd57fe5b049550611798565b819450505050505b91905056fe636f6e747261637420646f6573206e6f74206861766520656e6f7567682066756e6473426574206e6565647320746f20626520302e3120455448206f7220677265617465726e6f7420656e6f756768206d6f6e657920696e20636f6e747261637420746f2068616e646c65207468652062657450726f7661626c65207175657279207761732073656e742c207374616e64696e6720627920666f722074686520616e737765722e2e2e20a265627a7a72315820bcbf0d51cd7899c102fb9ce17252a915f07565d775d6fd4d6e6dfcf08f9266e964736f6c634300050c0032",
  "source": "\nimport \"./Ownable.sol\";\nimport \"./ProvableAPI.sol\";\npragma solidity 0.5.12;\n\ncontract Coin is Ownable, usingProvable {\n\n  struct Player {\n    address payable playerAddress;\n    bytes32 queryId;\n    uint256 balance;\n    bool isWaiting;\n  }\n\n  struct Bet {\n    address payable playerAddress;\n    uint256 coinFace;\n    uint256 betAmount;\n  }\n\n  uint256 constant NUM_RANDOM_BYTES_REQUESTED = 1;\n  uint256 constant QUERY_EXECUTION_DELAY = 0;\n  uint256 constant GAS_FOR_CALLBACK = 200000;\n  uint256 public winCount;\n  uint256 public lossCount;\n\n  mapping (address => Player) private players;\n  mapping (bytes32 => Bet) public bets;\n\n  event LogNewProvableQuery(string description, bytes32 queryId);\n  event generatedRandomNumber(bytes32 queryId, uint256 randomNumber, address playerAddress);\n  event betPlaced(address playerAddress, uint256 betAmount, string coinFace, bool winner, uint256 payout);\n\n  constructor() public {\n  }\n\n  // returns true only if player wins\n  function placeBet(uint _coinFace) public payable {\n    require(msg.value >= 0.1 ether, \"Bet needs to be 0.1 ETH or greater\");\n    require(_coinFace == 1 || _coinFace == 0, \"Must specify Heads or Tails\");\n    require(msg.value <= address(this).balance - GAS_FOR_CALLBACK,\"not enough money in contract to handle the bet\");\n    require(players[msg.sender].isWaiting == false,\"player already has a pending bet\");\n    // check to ensure that contract balance can cover the bet\n    assert(address(this).balance*2 - GAS_FOR_CALLBACK >= msg.value);\n    // call the oracle to get the random number\n    bytes32 queryId = testRandom();\n    /*\n    bytes32 queryId = provable_newRandomDSQuery(\n      QUERY_EXECUTION_DELAY,\n      NUM_RANDOM_BYTES_REQUESTED,\n      GAS_FOR_CALLBACK\n    );\n    */\n    // use the queryId to track the players bet\n    players[msg.sender].queryId = queryId;\n    players[msg.sender].isWaiting = true;\n    bets[queryId].playerAddress = msg.sender;\n    bets[queryId].coinFace = _coinFace;\n    bets[queryId].betAmount = msg.value;\n\n    emit LogNewProvableQuery(\"Provable query was sent, standing by for the answer... \", queryId);\n  }\n\n  // called from the oracle when it sends back the random\n  function __callback(bytes32 _queryId, string memory _result, bytes memory _proof) public {\n    //require(msg.sender == provable_cbAddress());\n\n    uint256 randomNumber = uint256(keccak256(abi.encodePacked(_result))) % 2;\n    string memory coinFaceStr = randomNumber == 0 ? \"Heads\" : \"Tails\";\n    uint256 betAmount = bets[_queryId].betAmount;\n    address playerAddress = bets[_queryId].playerAddress;\n    emit generatedRandomNumber(_queryId, randomNumber, playerAddress);\n    // set waiting false, so player can bet again\n    players[playerAddress].isWaiting = false;\n    // check to see if we have a winner or looser\n    if (players[playerAddress].queryId == _queryId && bets[_queryId].coinFace  == randomNumber) {\n      // we have a winner\n      winCount++;\n      players[playerAddress].balance += betAmount*2;\n      emit betPlaced(playerAddress, betAmount, coinFaceStr, true, betAmount*2);\n    } else if (players[playerAddress].queryId == _queryId){\n      // we have a looser\n      lossCount++;\n      if (players[playerAddress].balance <= betAmount){\n        players[playerAddress].balance = 0;\n      } else {\n        players[playerAddress].balance -= betAmount;\n      }\n      emit betPlaced(playerAddress, betAmount, coinFaceStr, false, 0);\n    }\n  }\n\n  // test function used during dev and testing (not used in prod)\n  function testRandom() public returns(bytes32){\n      bytes32 queryId = bytes32(keccak256(abi.encodePacked(msg.sender)));\n      uint256 randomNumber = 1;\n      __callback(queryId, uint2str(randomNumber), bytes(\"test\"));\n      return queryId;\n    }\n\n  // used to deposit funds to the contract. is public so players can also donate to the contract\n  function deposit() payable public {\n    // nothing to do. contract balance is automatically updated\n  }\n\n  // returns the contracts true balance\n  function getContractBalance() public view returns (uint256) {\n    return address(this).balance;\n  }\n\n  // returns the players balance\n  function getPlayerBalance() public view returns (uint256) {\n    return players[msg.sender].balance;\n  }\n\n  // returns the players waiting status. Can be used for troubleshooting and UX updates\n  function getPlayerStatus(address _playerAddress) public view returns (bool) {\n    return players[_playerAddress].isWaiting;\n  }\n\n  // allow the player to cash out when they have winnings\n  function cashoutPlayer() public returns(uint256){\n    require(players[msg.sender].balance > 0, \"player has 0 balance\");\n    require(players[msg.sender].balance <= address(this).balance, \"contract does not have enough funds\");\n    require(players[msg.sender].isWaiting == false, \"player already has a pending bet\");\n    uint256 cashoutBalance = players[msg.sender].balance;\n    players[msg.sender].balance = 0;\n    msg.sender.transfer(cashoutBalance);\n    return cashoutBalance;\n  }\n\n  // admin function to widthdraw all funds from contract\n  function withdrawAll() public onlyOwner returns(uint256) {\n       uint256 toTransfer = address(this).balance;\n       msg.sender.transfer(toTransfer);\n       return toTransfer;\n   }\n\n   // admin function to reset player address incase we have a problem with the oracle\n   // callback failing and leaving the player account locked out\n   function resetPlayerAddress(address _playerAddress) public onlyOwner {\n     players[_playerAddress].isWaiting = false;\n   }\n\n}\n",
  "sourcePath": "/Users/amer/ethereum/coin_flip_game/contracts/Coin.sol",
  "compiler": {
    "name": "solc",
    "version": "0.5.12+commit.7709ece9.Emscripten.clang"
  },
  "schemaVersion": "3.0.16",
  "updatedAt": "2020-10-19T02:28:41.964Z",
  "devdoc": {
    "methods": {
      "__callback(bytes32,string)": {
        "details": "The following `__callback` functions are just placeholders ideally     meant to be defined in child contract when proofs are used.     The function bodies simply silence compiler warnings."
      }
    }
  },
  "userdoc": {
    "methods": {}
  }
}